{"abi":[{"type":"constructor","inputs":[{"name":"_settlementContract","type":"address","internalType":"address"}],"stateMutability":"nonpayable"},{"type":"receive","stateMutability":"payable"},{"type":"function","name":"NATIVE_TOKEN","inputs":[],"outputs":[{"name":"","type":"address","internalType":"address"}],"stateMutability":"view"},{"type":"function","name":"acceptOwnership","inputs":[],"outputs":[],"stateMutability":"nonpayable"},{"type":"function","name":"cancelOwnershipTransfer","inputs":[],"outputs":[],"stateMutability":"nonpayable"},{"type":"function","name":"computeWithdrawalCommitment","inputs":[{"name":"token","type":"address","internalType":"address"},{"name":"recipient","type":"address","internalType":"address"},{"name":"amount","type":"uint256","internalType":"uint256"}],"outputs":[{"name":"","type":"bytes32","internalType":"bytes32"}],"stateMutability":"view"},{"type":"function","name":"depositNative","inputs":[],"outputs":[{"name":"commitment","type":"bytes32","internalType":"bytes32"}],"stateMutability":"payable"},{"type":"function","name":"depositToken","inputs":[{"name":"token","type":"address","internalType":"address"},{"name":"amount","type":"uint256","internalType":"uint256"}],"outputs":[{"name":"commitment","type":"bytes32","internalType":"bytes32"}],"stateMutability":"nonpayable"},{"type":"function","name":"executeAuthorizedWithdrawal","inputs":[{"name":"commitment","type":"bytes32","internalType":"bytes32"},{"name":"token","type":"address","internalType":"address"},{"name":"recipient","type":"address","internalType":"address"},{"name":"amount","type":"uint256","internalType":"uint256"}],"outputs":[],"stateMutability":"nonpayable"},{"type":"function","name":"executeWithdrawal","inputs":[{"name":"commitment","type":"bytes32","internalType":"bytes32"},{"name":"token","type":"address","internalType":"address"},{"name":"recipient","type":"address","internalType":"address"},{"name":"amount","type":"uint256","internalType":"uint256"},{"name":"proof","type":"bytes32[]","internalType":"bytes32[]"},{"name":"leafIndex","type":"uint256","internalType":"uint256"},{"name":"root","type":"bytes32","internalType":"bytes32"}],"outputs":[],"stateMutability":"nonpayable"},{"type":"function","name":"getBalance","inputs":[{"name":"token","type":"address","internalType":"address"}],"outputs":[{"name":"","type":"uint256","internalType":"uint256"}],"stateMutability":"view"},{"type":"function","name":"getWithdrawalNonce","inputs":[],"outputs":[{"name":"","type":"uint256","internalType":"uint256"}],"stateMutability":"view"},{"type":"function","name":"isCommitmentUsed","inputs":[{"name":"commitment","type":"bytes32","internalType":"bytes32"}],"outputs":[{"name":"","type":"bool","internalType":"bool"}],"stateMutability":"view"},{"type":"function","name":"owner","inputs":[],"outputs":[{"name":"","type":"address","internalType":"address"}],"stateMutability":"view"},{"type":"function","name":"pause","inputs":[],"outputs":[],"stateMutability":"nonpayable"},{"type":"function","name":"paused","inputs":[],"outputs":[{"name":"","type":"bool","internalType":"bool"}],"stateMutability":"view"},{"type":"function","name":"pendingOwner","inputs":[],"outputs":[{"name":"","type":"address","internalType":"address"}],"stateMutability":"view"},{"type":"function","name":"setSettlementContract","inputs":[{"name":"newSettlementContract","type":"address","internalType":"address"}],"outputs":[],"stateMutability":"nonpayable"},{"type":"function","name":"settlementContract","inputs":[],"outputs":[{"name":"","type":"address","internalType":"address"}],"stateMutability":"view"},{"type":"function","name":"tokenBalances","inputs":[{"name":"","type":"address","internalType":"address"}],"outputs":[{"name":"","type":"uint256","internalType":"uint256"}],"stateMutability":"view"},{"type":"function","name":"transferOwnership","inputs":[{"name":"newOwner","type":"address","internalType":"address"}],"outputs":[],"stateMutability":"nonpayable"},{"type":"function","name":"unpause","inputs":[],"outputs":[],"stateMutability":"nonpayable"},{"type":"function","name":"usedCommitments","inputs":[{"name":"","type":"bytes32","internalType":"bytes32"}],"outputs":[{"name":"","type":"bool","internalType":"bool"}],"stateMutability":"view"},{"type":"function","name":"withdrawalNonce","inputs":[],"outputs":[{"name":"","type":"uint256","internalType":"uint256"}],"stateMutability":"view"},{"type":"event","name":"Deposited","inputs":[{"name":"depositor","type":"address","indexed":true,"internalType":"address"},{"name":"token","type":"address","indexed":true,"internalType":"address"},{"name":"amount","type":"uint256","indexed":false,"internalType":"uint256"},{"name":"depositCommitment","type":"bytes32","indexed":true,"internalType":"bytes32"}],"anonymous":false},{"type":"event","name":"OwnershipTransferStarted","inputs":[{"name":"previousOwner","type":"address","indexed":true,"internalType":"address"},{"name":"newOwner","type":"address","indexed":true,"internalType":"address"}],"anonymous":false},{"type":"event","name":"OwnershipTransferred","inputs":[{"name":"previousOwner","type":"address","indexed":true,"internalType":"address"},{"name":"newOwner","type":"address","indexed":true,"internalType":"address"}],"anonymous":false},{"type":"event","name":"Paused","inputs":[{"name":"by","type":"address","indexed":true,"internalType":"address"}],"anonymous":false},{"type":"event","name":"SettlementContractUpdated","inputs":[{"name":"oldContract","type":"address","indexed":true,"internalType":"address"},{"name":"newContract","type":"address","indexed":true,"internalType":"address"}],"anonymous":false},{"type":"event","name":"Unpaused","inputs":[{"name":"by","type":"address","indexed":true,"internalType":"address"}],"anonymous":false},{"type":"event","name":"Withdrawn","inputs":[{"name":"commitment","type":"bytes32","indexed":true,"internalType":"bytes32"},{"name":"token","type":"address","indexed":true,"internalType":"address"},{"name":"recipient","type":"address","indexed":true,"internalType":"address"},{"name":"amount","type":"uint256","indexed":false,"internalType":"uint256"}],"anonymous":false},{"type":"error","name":"CommitmentAlreadyUsed","inputs":[]},{"type":"error","name":"ContractPaused","inputs":[]},{"type":"error","name":"DirectTransferNotAllowed","inputs":[]},{"type":"error","name":"InsufficientBalance","inputs":[]},{"type":"error","name":"InvalidProof","inputs":[]},{"type":"error","name":"TransferFailed","inputs":[]},{"type":"error","name":"Unauthorized","inputs":[]},{"type":"error","name":"ZeroAddress","inputs":[]},{"type":"error","name":"ZeroAmount","inputs":[]}],"bytecode":{"object":"0x60803461009457601f610e9f38819003918201601f19168301916001600160401b038311848410176100985780849260209460405283398101031261009457516001600160a01b038116908190036100945780156100825760018060a01b031933815f5416175f5560025416176002555f600355604051610df290816100ad8239f35b60405163d92e233d60e01b8152600490fd5b5f80fd5b634e487b7160e01b5f52604160045260245ffdfe608060408181526004918236101561002a575b50361561001d575f80fd5b51633ee6509d60e01b8152fd5b5f3560e01c90816323452b9c14610b1f5750806330dc240214610a1a57806331f7d96414610a00578063338b5dea146107b45780633719fd05146107305780633f4ba83a146106da578063523fba7f146106b55780635c975abb1461068f57806379ba5097146106225780637b259db414610604578063809d543d146106045780638456cb591461059c5780638cef30e9146105645780638da5cb5b1461053d5780639140203914610511578063b61b395c14610511578063be64ecfc14610316578063db6b524614610240578063e30c397814610218578063ea42418b146101f0578063f2fde38b146101605763f8b2cb4f14610128575f610012565b3461015c57602036600319011261015c576020916001600160a01b0361014c610b8b565b165f528252805f20549051908152f35b5f80fd5b50903461015c57602036600319011261015c5761017b610b8b565b5f546001600160a01b039081169291338490036101e157169283156101d4575050600180546001600160a01b031916831790557f38d16b8cac22d99fc7c124b9cd0de2d3fa1faef420bfe791d8c362d765e227005f80a3005b5163d92e233d60e01b8152fd5b84516282b42960e81b81528390fd5b503461015c575f36600319011261015c5760025490516001600160a01b039091168152602090f35b503461015c575f36600319011261015c5760015490516001600160a01b039091168152602090f35b505f36600319011261015c5760ff60025460a01c166103095734156102fc576020915f80528252805f20610275348254610c2c565b90558051828101906a14d25417d1115413d4d25560aa1b82525f602b82015234603f8201526001600160601b03193360601b16605f820152426073820152436093820152609381526102c681610bc2565b51902090815f82513481527f1055e7df6c05c7671de02b516b795815b736cd021b7c38291b6e68d91da91a2c863392a451908152f35b51631f2a200560e01b8152fd5b5163ab35696f60e01b8152fd5b503461015c5760e036600319011261015c578135610332610b5f565b61033a610b75565b91606435936084359167ffffffffffffffff9283811161015c573660238201121561015c578088013593841161015c576024936005913660248360051b8301011161015c576002546001600160a01b03969033888216141580610504575b6104f55760a01c60ff166104e557845f52600560205260ff865f2054166104d5576103c48a8a8a610d0f565b85036104c557849360a43593925f92915b8484106104805750505050505060c435036104705782841691825f528760205286815f2054106104615760207fa6786aab7dbbc48b4b0387488b407bd81448030ab207b50bea7dbb5fbc1cd9eb9161045f99845f5260058352815f20600160ff19825416179055855f528252805f2061044f8a8254610ba1565b90555194888652871694a4610c39565b005b51631e9acf1760e31b81528790fd5b81516309bde33960e01b81528790fd5b9091929394958385831b840101359060019182808a16145f146104b657906104a791610d7d565b965b811c9594019291906103d5565b6104bf91610d7d565b966104a9565b85516309bde33960e01b81528b90fd5b8551635be00f0f60e11b81528b90fd5b855163ab35696f60e01b81528b90fd5b86516282b42960e81b81528c90fd5b50875f5416331415610398565b503461015c57602036600319011261015c57602091355f526005825260ff815f20541690519015158152f35b503461015c575f36600319011261015c575f5490516001600160a01b039091168152602090f35b503461015c57606036600319011261015c57602090610595610584610b8b565b61058c610b5f565b60443591610d0f565b9051908152f35b503461015c575f36600319011261015c575f546001600160a01b031633036105f8576002805460ff60a01b1916600160a01b179055337f62e78cea01bee320cd4e420270b5ea74000d11b0c9f74754ebdbfc544b05a2585f80a2005b516282b42960e81b8152fd5b503461015c575f36600319011261015c576020906003549051908152f35b503461015c575f36600319011261015c576001546001600160a01b039290918383169190338390036105f8575050805f549384167f8be0079c531659141344cd1fd0a4f28419497f9722a3daafe3b4186f6b6457e05f80a36001600160a01b0319928316175f5516600155005b503461015c575f36600319011261015c5760209060ff60025460a01c1690519015158152f35b503461015c57602036600319011261015c576020916001600160a01b0361014c610b8b565b503461015c575f36600319011261015c575f546001600160a01b031633036105f8576002805460ff60a01b19169055337f5db9ee0a495bf2e6ff9c91a7834c1ba4fdd244a5e8aa4e537bd38aeae4b073aa5f80a2005b50903461015c57602036600319011261015c5761074b610b8b565b5f546001600160a01b03929190831633036107a65782169283156101d4575050816002549182167fd3c22d667f633bcf151d68134a0b9e7e5102748bb112d3af650c1770f480755b5f80a36001600160a01b03191617600255005b5082516282b42960e81b8152fd5b503461015c578060031936011261015c576107cd610b8b565b906024359260ff60025460a01c166109f25783156109e4576001600160a01b0383169283156109d55782516370a0823160e01b90818152308482015260209687826024818a5afa91821561099c575f926109a6575b508551906323b872dd60e01b82523386830152306024830152604482015287816064815f8b5af190811561099c575f9161096f575b501561095f57845191825230848301528682602481895afa8015610955575f90610926575b6108869250610ba1565b91845f528552825f2061089a838254610c2c565b90558251858101916a14d25417d1115413d4d25560aa1b83526001600160601b0319809160601b16602b83015283603f8301523360601b16605f820152426073820152436093820152609381526108f081610bc2565b51902092839183519081527f1055e7df6c05c7671de02b516b795815b736cd021b7c38291b6e68d91da91a2c863392a451908152f35b508682813d831161094e575b61093c8183610bf2565b8101031261015c57610886915161087c565b503d610932565b85513d5f823e3d90fd5b84516312171d8360e31b81528490fd5b61098f9150883d8a11610995575b6109878183610bf2565b810190610c14565b5f610857565b503d61097d565b86513d5f823e3d90fd5b9091508781813d83116109ce575b6109be8183610bf2565b8101031261015c5751905f610822565b503d6109b4565b50905163d92e233d60e01b8152fd5b9051631f2a200560e01b8152fd5b905163ab35696f60e01b8152fd5b503461015c575f36600319011261015c57602090515f8152f35b503461015c57608036600319011261015c578135610a36610b5f565b610a3e610b75565b6002546064359491936001600160a01b03929133848216141580610b12575b610b035760a01c60ff16610af357805f52600560205260ff825f205416610ae35782841691825f528760205286815f2054106104615760207fa6786aab7dbbc48b4b0387488b407bd81448030ab207b50bea7dbb5fbc1cd9eb9161045f99845f5260058352815f20600160ff19825416179055855f528252805f2061044f8a8254610ba1565b8151635be00f0f60e11b81528790fd5b815163ab35696f60e01b81528790fd5b82516282b42960e81b81528890fd5b50835f5416331415610a5d565b83903461015c575f36600319011261015c575f546001600160a01b03163303610b5457600180546001600160a01b0319169055005b6282b42960e81b8152fd5b602435906001600160a01b038216820361015c57565b604435906001600160a01b038216820361015c57565b600435906001600160a01b038216820361015c57565b91908203918211610bae57565b634e487b7160e01b5f52601160045260245ffd5b60c0810190811067ffffffffffffffff821117610bde57604052565b634e487b7160e01b5f52604160045260245ffd5b90601f8019910116810190811067ffffffffffffffff821117610bde57604052565b9081602091031261015c5751801515810361015c5790565b91908201809211610bae57565b6001600160a01b0390811680610ca95750505f80809381935af13d15610ca4573d67ffffffffffffffff8111610bde5760405190610c81601f8201601f191660200183610bf2565b81525f60203d92013e5b15610c9257565b6040516312171d8360e31b8152600490fd5b610c8b565b6020925f604492604051968795869463a9059cbb60e01b865216600485015260248401525af1908115610d04575f91610ce5575b5015610c9257565b610cfe915060203d602011610995576109878183610bf2565b5f610cdd565b6040513d5f823e3d90fd5b9091600354906040519260208401946d14d25417d5d2551211149055d05360921b86526001600160601b0319809260601b16602e86015260601b166042840152605683015260768201526076815260a0810181811067ffffffffffffffff821117610bde5760405251902090565b90604051906020820192600160f81b845260218301526041820152604181526080810181811067ffffffffffffffff821117610bde576040525190209056fea264697066735822122041a339790cffa097a8b9e7fa2854534faa67638219b5e7e0edb15b3c608584f464736f6c63430008180033","linkReferences":{}},"methodIdentifiers":{"NATIVE_TOKEN()":"31f7d964","acceptOwnership()":"79ba5097","cancelOwnershipTransfer()":"23452b9c","computeWithdrawalCommitment(address,address,uint256)":"8cef30e9","depositNative()":"db6b5246","depositToken(address,uint256)":"338b5dea","executeAuthorizedWithdrawal(bytes32,address,address,uint256)":"30dc2402","executeWithdrawal(bytes32,address,address,uint256,bytes32[],uint256,bytes32)":"be64ecfc","getBalance(address)":"f8b2cb4f","getWithdrawalNonce()":"809d543d","isCommitmentUsed(bytes32)":"b61b395c","owner()":"8da5cb5b","pause()":"8456cb59","paused()":"5c975abb","pendingOwner()":"e30c3978","setSettlementContract(address)":"3719fd05","settlementContract()":"ea42418b","tokenBalances(address)":"523fba7f","transferOwnership(address)":"f2fde38b","unpause()":"3f4ba83a","usedCommitments(bytes32)":"91402039","withdrawalNonce()":"7b259db4"},"id":23}