{"abi":[{"type":"constructor","inputs":[],"stateMutability":"nonpayable"},{"type":"function","name":"MAX_BATCH_SIZE","inputs":[],"outputs":[{"name":"","type":"uint256","internalType":"uint256"}],"stateMutability":"view"},{"type":"function","name":"MAX_PROOF_LENGTH","inputs":[],"outputs":[{"name":"","type":"uint256","internalType":"uint256"}],"stateMutability":"view"},{"type":"function","name":"acceptOwnership","inputs":[],"outputs":[],"stateMutability":"nonpayable"},{"type":"function","name":"authorizedExecutors","inputs":[{"name":"","type":"address","internalType":"address"}],"outputs":[{"name":"","type":"bool","internalType":"bool"}],"stateMutability":"view"},{"type":"function","name":"batchRoots","inputs":[{"name":"","type":"uint256","internalType":"uint256"}],"outputs":[{"name":"","type":"bytes32","internalType":"bytes32"}],"stateMutability":"view"},{"type":"function","name":"cancelOwnershipTransfer","inputs":[],"outputs":[],"stateMutability":"nonpayable"},{"type":"function","name":"currentBatchId","inputs":[],"outputs":[{"name":"","type":"uint256","internalType":"uint256"}],"stateMutability":"view"},{"type":"function","name":"currentRoot","inputs":[],"outputs":[{"name":"","type":"bytes32","internalType":"bytes32"}],"stateMutability":"view"},{"type":"function","name":"isCommitmentUsed","inputs":[{"name":"commitment","type":"bytes32","internalType":"bytes32"}],"outputs":[{"name":"","type":"bool","internalType":"bool"}],"stateMutability":"view"},{"type":"function","name":"owner","inputs":[],"outputs":[{"name":"","type":"address","internalType":"address"}],"stateMutability":"view"},{"type":"function","name":"pendingOwner","inputs":[],"outputs":[{"name":"","type":"address","internalType":"address"}],"stateMutability":"view"},{"type":"function","name":"setExecutor","inputs":[{"name":"executor","type":"address","internalType":"address"},{"name":"authorized","type":"bool","internalType":"bool"}],"outputs":[],"stateMutability":"nonpayable"},{"type":"function","name":"settle","inputs":[{"name":"commitment","type":"bytes32","internalType":"bytes32"},{"name":"proof","type":"bytes32[]","internalType":"bytes32[]"},{"name":"leafIndex","type":"uint256","internalType":"uint256"}],"outputs":[],"stateMutability":"nonpayable"},{"type":"function","name":"settleBatch","inputs":[{"name":"commitments","type":"bytes32[]","internalType":"bytes32[]"},{"name":"proofs","type":"bytes32[][]","internalType":"bytes32[][]"},{"name":"leafIndices","type":"uint256[]","internalType":"uint256[]"}],"outputs":[],"stateMutability":"nonpayable"},{"type":"function","name":"settleWithBatch","inputs":[{"name":"commitment","type":"bytes32","internalType":"bytes32"},{"name":"proof","type":"bytes32[]","internalType":"bytes32[]"},{"name":"leafIndex","type":"uint256","internalType":"uint256"},{"name":"batchId","type":"uint256","internalType":"uint256"}],"outputs":[],"stateMutability":"nonpayable"},{"type":"function","name":"transferOwnership","inputs":[{"name":"newOwner","type":"address","internalType":"address"}],"outputs":[],"stateMutability":"nonpayable"},{"type":"function","name":"updateRoot","inputs":[{"name":"newRoot","type":"bytes32","internalType":"bytes32"}],"outputs":[{"name":"batchId","type":"uint256","internalType":"uint256"}],"stateMutability":"nonpayable"},{"type":"function","name":"usedCommitments","inputs":[{"name":"","type":"bytes32","internalType":"bytes32"}],"outputs":[{"name":"","type":"bool","internalType":"bool"}],"stateMutability":"view"},{"type":"function","name":"verifyCommitment","inputs":[{"name":"commitment","type":"bytes32","internalType":"bytes32"},{"name":"proof","type":"bytes32[]","internalType":"bytes32[]"},{"name":"leafIndex","type":"uint256","internalType":"uint256"}],"outputs":[{"name":"valid","type":"bool","internalType":"bool"},{"name":"used","type":"bool","internalType":"bool"}],"stateMutability":"view"},{"type":"event","name":"BatchSettled","inputs":[{"name":"batchId","type":"uint256","indexed":true,"internalType":"uint256"},{"name":"count","type":"uint256","indexed":false,"internalType":"uint256"},{"name":"executor","type":"address","indexed":false,"internalType":"address"}],"anonymous":false},{"type":"event","name":"CommitmentSettled","inputs":[{"name":"commitment","type":"bytes32","indexed":true,"internalType":"bytes32"},{"name":"batchId","type":"uint256","indexed":true,"internalType":"uint256"},{"name":"executor","type":"address","indexed":false,"internalType":"address"}],"anonymous":false},{"type":"event","name":"ExecutorUpdated","inputs":[{"name":"executor","type":"address","indexed":true,"internalType":"address"},{"name":"authorized","type":"bool","indexed":false,"internalType":"bool"}],"anonymous":false},{"type":"event","name":"OwnershipTransferStarted","inputs":[{"name":"previousOwner","type":"address","indexed":true,"internalType":"address"},{"name":"newOwner","type":"address","indexed":true,"internalType":"address"}],"anonymous":false},{"type":"event","name":"OwnershipTransferred","inputs":[{"name":"previousOwner","type":"address","indexed":true,"internalType":"address"},{"name":"newOwner","type":"address","indexed":true,"internalType":"address"}],"anonymous":false},{"type":"event","name":"RootUpdated","inputs":[{"name":"newRoot","type":"bytes32","indexed":true,"internalType":"bytes32"},{"name":"batchId","type":"uint256","indexed":true,"internalType":"uint256"},{"name":"timestamp","type":"uint256","indexed":false,"internalType":"uint256"}],"anonymous":false},{"type":"error","name":"BatchTooLarge","inputs":[]},{"type":"error","name":"CommitmentAlreadyUsed","inputs":[]},{"type":"error","name":"EmptyProof","inputs":[]},{"type":"error","name":"InvalidProof","inputs":[]},{"type":"error","name":"InvalidRoot","inputs":[]},{"type":"error","name":"LengthMismatch","inputs":[]},{"type":"error","name":"ProofTooLong","inputs":[]},{"type":"error","name":"Unauthorized","inputs":[]},{"type":"error","name":"ZeroAddress","inputs":[]}],"bytecode":{"object":"0x6080806040523461003f575f80546001600160a01b0319163390811782558152600660205260409020805460ff191660011790556109be90816100448239f35b5f80fdfe6080604090808252600480361015610015575f80fd5b5f3560e01c9182630a763da11461074b575081631e1bff3f146106a657816321ff9970146105e757816323452b9c146105b35781633a2706461461057257816352641b0514610521578163650ad8bb146103c3578163679d86a71461038757816368e2f9791461036157816379ba5097146102e85781638da5cb5b146102c15781639140203914610295578163b61b395c14610295578163b9df20511461027b578163cfdbf25414610260578163dc6ebab2146101ca578163e30c3978146101a2578163f2fde38b14610112575063fdab463d146100f1575f80fd5b3461010e575f36600319011261010e576020906002549051908152f35b5f80fd5b90503461010e57602036600319011261010e5761012d610765565b5f546001600160a01b039081169291338490036101935716928315610186575050600180546001600160a01b031916831790557f38d16b8cac22d99fc7c124b9cd0de2d3fa1faef420bfe791d8c362d765e227005f80a3005b5163d92e233d60e01b8152fd5b84516282b42960e81b81528390fd5b823461010e575f36600319011261010e5760015490516001600160a01b039091168152602090f35b823461010e57608036600319011261010e5760243567ffffffffffffffff811161010e576101fb903690840161077b565b919092606435928015610251576020811161024257835f5281602052825f205492831561023357506102319460443592356108a6565b005b5163504570e360e01b81529050fd5b5090516316b5c27960e31b8152fd5b50905163668fd6f360e01b8152fd5b823461010e575f36600319011261010e576020905160648152f35b823461010e575f36600319011261010e5760209051818152f35b823461010e57602036600319011261010e57602091355f526005825260ff815f20541690519015158152f35b823461010e575f36600319011261010e575f5490516001600160a01b039091168152602090f35b823461010e575f36600319011261010e576001546001600160a01b03929091838316919033839003610355575050805f549384167f8be0079c531659141344cd1fd0a4f28419497f9722a3daafe3b4186f6b6457e05f80a36001600160a01b0319928316175f5516600155005b516282b42960e81b8152fd5b823461010e57602036600319011261010e5781602092355f528252805f20549051908152f35b823461010e57602036600319011261010e576020906001600160a01b036103ac610765565b165f526006825260ff815f20541690519015158152f35b90503461010e57606036600319011261010e5767ffffffffffffffff91813583811161010e576103f6903690840161077b565b909360243581811161010e5761040f903690860161077b565b9160443590811161010e57610427903690870161077b565b90848414801590610517575b61050457606485116104f45760025493600354985f5b878110610482578a7fae6d6d9420248f6d8d3089f2c2633c9a54b9418c444c5d17e78e03937fec77638a8a8151908152336020820152a2005b61048d8184886107e4565b809150156104e4576020106104d457806104ce8c896104af6001958d8861083d565b356104bb85898d6107e4565b906104c7878d8d61083d565b35926108a6565b01610449565b88516316b5c27960e31b81528a90fd5b895163668fd6f360e01b81528b90fd5b85516305beb17160e11b81528790fd5b85516001621398b960e31b031981528790fd5b5084821415610433565b823461010e57610530366107ac565b919293811561056357602082116105545750610231945060025492600354946108a6565b516316b5c27960e31b81528590fd5b5163668fd6f360e01b81528590fd5b823461010e576105a2610584366107ac565b91835f9594929552600560205260ff865f205416946002549161084d565b908251911515825215156020820152f35b823461010e575f36600319011261010e575f546001600160a01b0316330361035557600180546001600160a01b0319169055005b823461010e57602036600319011261010e57813590335f52600660205260ff815f2054161580610692575b610684578115610233576003545f19811461067157926001602094019283918260035581600255825f52855280835f20557f156798a72d63b37f86ff1ecc41eec4f30e3c7b325c8a410c2671f2e7fc0c30f3858451428152a351908152f35b601184634e487b7160e01b5f525260245ffd5b516282b42960e81b81529050fd5b505f546001600160a01b0316331415610612565b823461010e578060031936011261010e576106bf610765565b906024359182151580930361010e575f546001600160a01b0391908216330361073c571692831561072e57507f9fdbc2d48b8a0db2f62663bf9312ad02f5b1f6414ad600b55a247d09aeec3ea291602091845f5260068352805f2060ff1981541660ff841617905551908152a2005b905163d92e233d60e01b8152fd5b82516282b42960e81b81528590fd5b3461010e575f36600319011261010e576020906003548152f35b600435906001600160a01b038216820361010e57565b9181601f8401121561010e5782359167ffffffffffffffff831161010e576020808501948460051b01011161010e57565b90606060031983011261010e57600435916024359067ffffffffffffffff821161010e576107dc9160040161077b565b909160443590565b91908110156108295760051b81013590601e198136030182121561010e57019081359167ffffffffffffffff831161010e576020018260051b3603811361010e579190565b634e487b7160e01b5f52603260045260245ffd5b91908110156108295760051b0190565b919391905f905b80821061086357505050501490565b9091929361087283838661083d565b60019190358683168303610897579061088a91610935565b945b811c93920190610854565b6108a091610935565b9461088c565b93929192845f52600560205260ff60405f205416610923576108c993859261084d565b1561091157805f52600560205260405f20600160ff198254161790557fead1ba9fb03c705a3fcc8aaa2eca109177f9dac3629c42b50e8a4333fead9b8e6020604051338152a3565b6040516309bde33960e01b8152600490fd5b604051635be00f0f60e11b8152600490fd5b90604051906020820192600160f81b845260218301526041820152604181526080810181811067ffffffffffffffff8211176109745760405251902090565b634e487b7160e01b5f52604160045260245ffdfea2646970667358221220a767acdf246512c8e2e3c469c49ba743f28407140c87a5d1fa434ce9a9bffe5d64736f6c63430008180033","linkReferences":{}},"methodIdentifiers":{"MAX_BATCH_SIZE()":"cfdbf254","MAX_PROOF_LENGTH()":"b9df2051","acceptOwnership()":"79ba5097","authorizedExecutors(address)":"679d86a7","batchRoots(uint256)":"68e2f979","cancelOwnershipTransfer()":"23452b9c","currentBatchId()":"0a763da1","currentRoot()":"fdab463d","isCommitmentUsed(bytes32)":"b61b395c","owner()":"8da5cb5b","pendingOwner()":"e30c3978","setExecutor(address,bool)":"1e1bff3f","settle(bytes32,bytes32[],uint256)":"52641b05","settleBatch(bytes32[],bytes32[][],uint256[])":"650ad8bb","settleWithBatch(bytes32,bytes32[],uint256,uint256)":"dc6ebab2","transferOwnership(address)":"f2fde38b","updateRoot(bytes32)":"21ff9970","usedCommitments(bytes32)":"91402039","verifyCommitment(bytes32,bytes32[],uint256)":"3a270646"},"id":22}